{
  "contractName": "NFTMarketplace",
  "abi": [
    {
      "inputs": [],
      "stateMutability": "nonpayable",
      "type": "constructor"
    },
    {
      "anonymous": false,
      "inputs": [
        {
          "indexed": true,
          "internalType": "address",
          "name": "owner",
          "type": "address"
        },
        {
          "indexed": true,
          "internalType": "address",
          "name": "approved",
          "type": "address"
        },
        {
          "indexed": true,
          "internalType": "uint256",
          "name": "tokenId",
          "type": "uint256"
        }
      ],
      "name": "Approval",
      "type": "event"
    },
    {
      "anonymous": false,
      "inputs": [
        {
          "indexed": true,
          "internalType": "address",
          "name": "owner",
          "type": "address"
        },
        {
          "indexed": true,
          "internalType": "address",
          "name": "operator",
          "type": "address"
        },
        {
          "indexed": false,
          "internalType": "bool",
          "name": "approved",
          "type": "bool"
        }
      ],
      "name": "ApprovalForAll",
      "type": "event"
    },
    {
      "anonymous": false,
      "inputs": [
        {
          "indexed": true,
          "internalType": "address",
          "name": "previousOwner",
          "type": "address"
        },
        {
          "indexed": true,
          "internalType": "address",
          "name": "newOwner",
          "type": "address"
        }
      ],
      "name": "OwnershipTransferred",
      "type": "event"
    },
    {
      "anonymous": false,
      "inputs": [
        {
          "indexed": true,
          "internalType": "address",
          "name": "from",
          "type": "address"
        },
        {
          "indexed": true,
          "internalType": "address",
          "name": "to",
          "type": "address"
        },
        {
          "indexed": true,
          "internalType": "uint256",
          "name": "tokenId",
          "type": "uint256"
        }
      ],
      "name": "Transfer",
      "type": "event"
    },
    {
      "inputs": [
        {
          "internalType": "address",
          "name": "to",
          "type": "address"
        },
        {
          "internalType": "uint256",
          "name": "tokenId",
          "type": "uint256"
        }
      ],
      "name": "approve",
      "outputs": [],
      "stateMutability": "nonpayable",
      "type": "function"
    },
    {
      "inputs": [
        {
          "internalType": "address",
          "name": "owner",
          "type": "address"
        }
      ],
      "name": "balanceOf",
      "outputs": [
        {
          "internalType": "uint256",
          "name": "",
          "type": "uint256"
        }
      ],
      "stateMutability": "view",
      "type": "function",
      "constant": true
    },
    {
      "inputs": [
        {
          "internalType": "uint256",
          "name": "tokenId",
          "type": "uint256"
        }
      ],
      "name": "getApproved",
      "outputs": [
        {
          "internalType": "address",
          "name": "",
          "type": "address"
        }
      ],
      "stateMutability": "view",
      "type": "function",
      "constant": true
    },
    {
      "inputs": [
        {
          "internalType": "address",
          "name": "owner",
          "type": "address"
        },
        {
          "internalType": "address",
          "name": "operator",
          "type": "address"
        }
      ],
      "name": "isApprovedForAll",
      "outputs": [
        {
          "internalType": "bool",
          "name": "",
          "type": "bool"
        }
      ],
      "stateMutability": "view",
      "type": "function",
      "constant": true
    },
    {
      "inputs": [],
      "name": "name",
      "outputs": [
        {
          "internalType": "string",
          "name": "",
          "type": "string"
        }
      ],
      "stateMutability": "view",
      "type": "function",
      "constant": true
    },
    {
      "inputs": [],
      "name": "owner",
      "outputs": [
        {
          "internalType": "address",
          "name": "",
          "type": "address"
        }
      ],
      "stateMutability": "view",
      "type": "function",
      "constant": true
    },
    {
      "inputs": [
        {
          "internalType": "uint256",
          "name": "tokenId",
          "type": "uint256"
        }
      ],
      "name": "ownerOf",
      "outputs": [
        {
          "internalType": "address",
          "name": "",
          "type": "address"
        }
      ],
      "stateMutability": "view",
      "type": "function",
      "constant": true
    },
    {
      "inputs": [],
      "name": "renounceOwnership",
      "outputs": [],
      "stateMutability": "nonpayable",
      "type": "function"
    },
    {
      "inputs": [
        {
          "internalType": "address",
          "name": "from",
          "type": "address"
        },
        {
          "internalType": "address",
          "name": "to",
          "type": "address"
        },
        {
          "internalType": "uint256",
          "name": "tokenId",
          "type": "uint256"
        }
      ],
      "name": "safeTransferFrom",
      "outputs": [],
      "stateMutability": "nonpayable",
      "type": "function"
    },
    {
      "inputs": [
        {
          "internalType": "address",
          "name": "from",
          "type": "address"
        },
        {
          "internalType": "address",
          "name": "to",
          "type": "address"
        },
        {
          "internalType": "uint256",
          "name": "tokenId",
          "type": "uint256"
        },
        {
          "internalType": "bytes",
          "name": "data",
          "type": "bytes"
        }
      ],
      "name": "safeTransferFrom",
      "outputs": [],
      "stateMutability": "nonpayable",
      "type": "function"
    },
    {
      "inputs": [
        {
          "internalType": "address",
          "name": "operator",
          "type": "address"
        },
        {
          "internalType": "bool",
          "name": "approved",
          "type": "bool"
        }
      ],
      "name": "setApprovalForAll",
      "outputs": [],
      "stateMutability": "nonpayable",
      "type": "function"
    },
    {
      "inputs": [
        {
          "internalType": "bytes4",
          "name": "interfaceId",
          "type": "bytes4"
        }
      ],
      "name": "supportsInterface",
      "outputs": [
        {
          "internalType": "bool",
          "name": "",
          "type": "bool"
        }
      ],
      "stateMutability": "view",
      "type": "function",
      "constant": true
    },
    {
      "inputs": [],
      "name": "symbol",
      "outputs": [
        {
          "internalType": "string",
          "name": "",
          "type": "string"
        }
      ],
      "stateMutability": "view",
      "type": "function",
      "constant": true
    },
    {
      "inputs": [
        {
          "internalType": "uint256",
          "name": "tokenId",
          "type": "uint256"
        }
      ],
      "name": "tokenURI",
      "outputs": [
        {
          "internalType": "string",
          "name": "",
          "type": "string"
        }
      ],
      "stateMutability": "view",
      "type": "function",
      "constant": true
    },
    {
      "inputs": [
        {
          "internalType": "address",
          "name": "from",
          "type": "address"
        },
        {
          "internalType": "address",
          "name": "to",
          "type": "address"
        },
        {
          "internalType": "uint256",
          "name": "tokenId",
          "type": "uint256"
        }
      ],
      "name": "transferFrom",
      "outputs": [],
      "stateMutability": "nonpayable",
      "type": "function"
    },
    {
      "inputs": [
        {
          "internalType": "address",
          "name": "newOwner",
          "type": "address"
        }
      ],
      "name": "transferOwnership",
      "outputs": [],
      "stateMutability": "nonpayable",
      "type": "function"
    },
    {
      "inputs": [
        {
          "internalType": "uint256",
          "name": "tokenId",
          "type": "uint256"
        },
        {
          "internalType": "string",
          "name": "name",
          "type": "string"
        },
        {
          "internalType": "string",
          "name": "description",
          "type": "string"
        }
      ],
      "name": "createNFT",
      "outputs": [],
      "stateMutability": "nonpayable",
      "type": "function"
    },
    {
      "inputs": [
        {
          "internalType": "uint256",
          "name": "tokenId",
          "type": "uint256"
        },
        {
          "internalType": "address",
          "name": "to",
          "type": "address"
        }
      ],
      "name": "transferNFT",
      "outputs": [],
      "stateMutability": "nonpayable",
      "type": "function"
    },
    {
      "inputs": [
        {
          "internalType": "uint256",
          "name": "tokenId",
          "type": "uint256"
        },
        {
          "internalType": "uint256",
          "name": "price",
          "type": "uint256"
        }
      ],
      "name": "listNFTForSale",
      "outputs": [],
      "stateMutability": "nonpayable",
      "type": "function"
    },
    {
      "inputs": [
        {
          "internalType": "uint256",
          "name": "tokenId",
          "type": "uint256"
        }
      ],
      "name": "removeNFTFromSale",
      "outputs": [],
      "stateMutability": "nonpayable",
      "type": "function"
    },
    {
      "inputs": [
        {
          "internalType": "uint256",
          "name": "tokenId",
          "type": "uint256"
        }
      ],
      "name": "purchaseNFT",
      "outputs": [],
      "stateMutability": "payable",
      "type": "function",
      "payable": true
    },
    {
      "inputs": [
        {
          "internalType": "uint256",
          "name": "tokenId",
          "type": "uint256"
        }
      ],
      "name": "getNFT",
      "outputs": [
        {
          "components": [
            {
              "internalType": "string",
              "name": "name",
              "type": "string"
            },
            {
              "internalType": "string",
              "name": "description",
              "type": "string"
            },
            {
              "internalType": "bool",
              "name": "forSale",
              "type": "bool"
            },
            {
              "internalType": "uint256",
              "name": "price",
              "type": "uint256"
            }
          ],
          "internalType": "struct NFTMarketplace.NFT",
          "name": "nft",
          "type": "tuple"
        }
      ],
      "stateMutability": "view",
      "type": "function",
      "constant": true
    }
  ],
  "bytecode": "0x60806040523480156200001157600080fd5b506040518060400160405280600f81526020017f4e4654204d61726b6574706c61636500000000000000000000000000000000008152506040518060400160405280600281526020017f485700000000000000000000000000000000000000000000000000000000000081525081600090816200008f919062000412565b508060019081620000a1919062000412565b505050620000c4620000b8620000ca60201b60201c565b620000d260201b60201c565b620004f9565b600033905090565b6000600660009054906101000a900473ffffffffffffffffffffffffffffffffffffffff16905081600660006101000a81548173ffffffffffffffffffffffffffffffffffffffff021916908373ffffffffffffffffffffffffffffffffffffffff1602179055508173ffffffffffffffffffffffffffffffffffffffff168173ffffffffffffffffffffffffffffffffffffffff167f8be0079c531659141344cd1fd0a4f28419497f9722a3daafe3b4186f6b6457e060405160405180910390a35050565b600081519050919050565b7f4e487b7100000000000000000000000000000000000000000000000000000000600052604160045260246000fd5b7f4e487b7100000000000000000000000000000000000000000000000000000000600052602260045260246000fd5b600060028204905060018216806200021a57607f821691505b60208210810362000230576200022f620001d2565b5b50919050565b60008190508160005260206000209050919050565b60006020601f8301049050919050565b600082821b905092915050565b6000600883026200029a7fffffffffffffffffffffffffffffffffffffffffffffffffffffffffffffffff826200025b565b620002a686836200025b565b95508019841693508086168417925050509392505050565b6000819050919050565b6000819050919050565b6000620002f3620002ed620002e784620002be565b620002c8565b620002be565b9050919050565b6000819050919050565b6200030f83620002d2565b620003276200031e82620002fa565b84845462000268565b825550505050565b600090565b6200033e6200032f565b6200034b81848462000304565b505050565b5b8181101562000373576200036760008262000334565b60018101905062000351565b5050565b601f821115620003c2576200038c8162000236565b62000397846200024b565b81016020851015620003a7578190505b620003bf620003b6856200024b565b83018262000350565b50505b505050565b600082821c905092915050565b6000620003e760001984600802620003c7565b1980831691505092915050565b6000620004028383620003d4565b9150826002028217905092915050565b6200041d8262000198565b67ffffffffffffffff811115620004395762000438620001a3565b5b62000445825462000201565b6200045282828562000377565b600060209050601f8311600181146200048a576000841562000475578287015190505b620004818582620003f4565b865550620004f1565b601f1984166200049a8662000236565b60005b82811015620004c4578489015182556001820191506020850194506020810190506200049d565b86831015620004e45784890151620004e0601f891682620003d4565b8355505b6001600288020188555050505b505050505050565b613a3a80620005096000396000f3fe6080604052600436106101355760003560e01c8063715018a6116100ab578063a22cb4651161006f578063a22cb46514610415578063b2733b391461043e578063b88d4fde14610467578063c87b56dd14610490578063e985e9c5146104cd578063f2fde38b1461050a57610135565b8063715018a6146103565780638da5cb5b1461036d5780639036c0501461039857806395d89b41146103c1578063a02e5107146103ec57610135565b8063150bde03116100fd578063150bde031461023157806323b872dd1461024d57806342842e0e14610276578063576f7ea71461029f5780636352211e146102dc57806370a082311461031957610135565b806301ffc9a71461013a578063043668811461017757806306fdde03146101a0578063081812fc146101cb578063095ea7b314610208575b600080fd5b34801561014657600080fd5b50610161600480360381019061015c919061237e565b610533565b60405161016e91906123c6565b60405180910390f35b34801561018357600080fd5b5061019e6004803603810190610199919061255d565b610615565b005b3480156101ac57600080fd5b506101b5610706565b6040516101c29190612667565b60405180910390f35b3480156101d757600080fd5b506101f260048036038101906101ed9190612689565b610798565b6040516101ff91906126f7565b60405180910390f35b34801561021457600080fd5b5061022f600480360381019061022a919061273e565b6107de565b005b61024b60048036038101906102469190612689565b6108f5565b005b34801561025957600080fd5b50610274600480360381019061026f919061277e565b610aa6565b005b34801561028257600080fd5b5061029d6004803603810190610298919061277e565b610b06565b005b3480156102ab57600080fd5b506102c660048036038101906102c19190612689565b610b26565b6040516102d391906128a3565b60405180910390f35b3480156102e857600080fd5b5061030360048036038101906102fe9190612689565b610ce4565b60405161031091906126f7565b60405180910390f35b34801561032557600080fd5b50610340600480360381019061033b91906128c5565b610d6a565b60405161034d9190612901565b60405180910390f35b34801561036257600080fd5b5061036b610e21565b005b34801561037957600080fd5b50610382610e35565b60405161038f91906126f7565b60405180910390f35b3480156103a457600080fd5b506103bf60048036038101906103ba919061291c565b610e5f565b005b3480156103cd57600080fd5b506103d6610f2c565b6040516103e39190612667565b60405180910390f35b3480156103f857600080fd5b50610413600480360381019061040e9190612689565b610fbe565b005b34801561042157600080fd5b5061043c60048036038101906104379190612988565b6110ca565b005b34801561044a57600080fd5b50610465600480360381019061046091906129c8565b6110e0565b005b34801561047357600080fd5b5061048e60048036038101906104899190612aa9565b6111ec565b005b34801561049c57600080fd5b506104b760048036038101906104b29190612689565b61124e565b6040516104c49190612667565b60405180910390f35b3480156104d957600080fd5b506104f460048036038101906104ef9190612b2c565b6112b6565b60405161050191906123c6565b60405180910390f35b34801561051657600080fd5b50610531600480360381019061052c91906128c5565b61134a565b005b60007f80ac58cd000000000000000000000000000000000000000000000000000000007bffffffffffffffffffffffffffffffffffffffffffffffffffffffff1916827bffffffffffffffffffffffffffffffffffffffffffffffffffffffff191614806105fe57507f5b5e139f000000000000000000000000000000000000000000000000000000007bffffffffffffffffffffffffffffffffffffffffffffffffffffffff1916827bffffffffffffffffffffffffffffffffffffffffffffffffffffffff1916145b8061060e575061060d826113cd565b5b9050919050565b61061d611437565b610626836114b5565b15610666576040517f08c379a000000000000000000000000000000000000000000000000000000000815260040161065d90612bb8565b60405180910390fd5b61067033846114f6565b604051806080016040528083815260200182815260200160001515815260200160008152506007600085815260200190815260200160002060008201518160000190816106bd9190612de4565b5060208201518160010190816106d39190612de4565b5060408201518160020160006101000a81548160ff02191690831515021790555060608201518160030155905050505050565b60606000805461071590612c07565b80601f016020809104026020016040519081016040528092919081815260200182805461074190612c07565b801561078e5780601f106107635761010080835404028352916020019161078e565b820191906000526020600020905b81548152906001019060200180831161077157829003601f168201915b5050505050905090565b60006107a382611514565b6004600083815260200190815260200160002060009054906101000a900473ffffffffffffffffffffffffffffffffffffffff169050919050565b60006107e982610ce4565b90508073ffffffffffffffffffffffffffffffffffffffff168373ffffffffffffffffffffffffffffffffffffffff1603610859576040517f08c379a000000000000000000000000000000000000000000000000000000000815260040161085090612f28565b60405180910390fd5b8073ffffffffffffffffffffffffffffffffffffffff1661087861155f565b73ffffffffffffffffffffffffffffffffffffffff1614806108a757506108a6816108a161155f565b6112b6565b5b6108e6576040517f08c379a00000000000000000000000000000000000000000000000000000000081526004016108dd90612fba565b60405180910390fd5b6108f08383611567565b505050565b6108fe816114b5565b61093d576040517f08c379a000000000000000000000000000000000000000000000000000000000815260040161093490613026565b60405180910390fd5b6007600082815260200190815260200160002060020160009054906101000a900460ff166109a0576040517f08c379a000000000000000000000000000000000000000000000000000000000815260040161099790613092565b60405180910390fd5b600760008281526020019081526020016000206003015434146109f8576040517f08c379a00000000000000000000000000000000000000000000000000000000081526004016109ef906130fe565b60405180910390fd5b6000610a0382610ce4565b9050610a10813384611620565b8073ffffffffffffffffffffffffffffffffffffffff166108fc349081150290604051600060405180830381858888f19350505050158015610a56573d6000803e3d6000fd5b5060006007600084815260200190815260200160002060020160006101000a81548160ff021916908315150217905550600060076000848152602001908152602001600020600301819055505050565b610ab7610ab161155f565b82611919565b610af6576040517f08c379a0000000000000000000000000000000000000000000000000000000008152600401610aed90613190565b60405180910390fd5b610b01838383611620565b505050565b610b21838383604051806020016040528060008152506111ec565b505050565b610b2e6122e8565b610b37826114b5565b610b76576040517f08c379a0000000000000000000000000000000000000000000000000000000008152600401610b6d90613026565b60405180910390fd5b60076000838152602001908152602001600020604051806080016040529081600082018054610ba490612c07565b80601f0160208091040260200160405190810160405280929190818152602001828054610bd090612c07565b8015610c1d5780601f10610bf257610100808354040283529160200191610c1d565b820191906000526020600020905b815481529060010190602001808311610c0057829003601f168201915b50505050508152602001600182018054610c3690612c07565b80601f0160208091040260200160405190810160405280929190818152602001828054610c6290612c07565b8015610caf5780601f10610c8457610100808354040283529160200191610caf565b820191906000526020600020905b815481529060010190602001808311610c9257829003601f168201915b505050505081526020016002820160009054906101000a900460ff161515151581526020016003820154815250509050919050565b600080610cf0836119ae565b9050600073ffffffffffffffffffffffffffffffffffffffff168173ffffffffffffffffffffffffffffffffffffffff1603610d61576040517f08c379a0000000000000000000000000000000000000000000000000000000008152600401610d58906131fc565b60405180910390fd5b80915050919050565b60008073ffffffffffffffffffffffffffffffffffffffff168273ffffffffffffffffffffffffffffffffffffffff1603610dda576040517f08c379a0000000000000000000000000000000000000000000000000000000008152600401610dd19061328e565b60405180910390fd5b600360008373ffffffffffffffffffffffffffffffffffffffff1673ffffffffffffffffffffffffffffffffffffffff168152602001908152602001600020549050919050565b610e29611437565b610e3360006119eb565b565b6000600660009054906101000a900473ffffffffffffffffffffffffffffffffffffffff16905090565b610e68826114b5565b610ea7576040517f08c379a0000000000000000000000000000000000000000000000000000000008152600401610e9e90613026565b60405180910390fd5b3373ffffffffffffffffffffffffffffffffffffffff16610ec783610ce4565b73ffffffffffffffffffffffffffffffffffffffff1614610f1d576040517f08c379a0000000000000000000000000000000000000000000000000000000008152600401610f1490613320565b60405180910390fd5b610f28338284610b06565b5050565b606060018054610f3b90612c07565b80601f0160208091040260200160405190810160405280929190818152602001828054610f6790612c07565b8015610fb45780601f10610f8957610100808354040283529160200191610fb4565b820191906000526020600020905b815481529060010190602001808311610f9757829003601f168201915b5050505050905090565b610fc7816114b5565b611006576040517f08c379a0000000000000000000000000000000000000000000000000000000008152600401610ffd90613026565b60405180910390fd5b3373ffffffffffffffffffffffffffffffffffffffff1661102682610ce4565b73ffffffffffffffffffffffffffffffffffffffff161461107c576040517f08c379a0000000000000000000000000000000000000000000000000000000008152600401611073906133b2565b60405180910390fd5b60006007600083815260200190815260200160002060020160006101000a81548160ff0219169083151502179055506000600760008381526020019081526020016000206003018190555050565b6110dc6110d561155f565b8383611ab1565b5050565b6110e9826114b5565b611128576040517f08c379a000000000000000000000000000000000000000000000000000000000815260040161111f90613026565b60405180910390fd5b3373ffffffffffffffffffffffffffffffffffffffff1661114883610ce4565b73ffffffffffffffffffffffffffffffffffffffff161461119e576040517f08c379a000000000000000000000000000000000000000000000000000000000815260040161119590613444565b60405180910390fd5b60016007600084815260200190815260200160002060020160006101000a81548160ff0219169083151502179055508060076000848152602001908152602001600020600301819055505050565b6111fd6111f761155f565b83611919565b61123c576040517f08c379a000000000000000000000000000000000000000000000000000000000815260040161123390613190565b60405180910390fd5b61124884848484611c1d565b50505050565b606061125982611514565b6000611263611c79565b9050600081511161128357604051806020016040528060008152506112ae565b8061128d84611c99565b60405160200161129e9291906134a0565b6040516020818303038152906040525b915050919050565b6000600560008473ffffffffffffffffffffffffffffffffffffffff1673ffffffffffffffffffffffffffffffffffffffff16815260200190815260200160002060008373ffffffffffffffffffffffffffffffffffffffff1673ffffffffffffffffffffffffffffffffffffffff16815260200190815260200160002060009054906101000a900460ff16905092915050565b611352611437565b600073ffffffffffffffffffffffffffffffffffffffff168173ffffffffffffffffffffffffffffffffffffffff16036113c1576040517f08c379a00000000000000000000000000000000000000000000000000000000081526004016113b890613536565b60405180910390fd5b6113ca816119eb565b50565b60007f01ffc9a7000000000000000000000000000000000000000000000000000000007bffffffffffffffffffffffffffffffffffffffffffffffffffffffff1916827bffffffffffffffffffffffffffffffffffffffffffffffffffffffff1916149050919050565b61143f61155f565b73ffffffffffffffffffffffffffffffffffffffff1661145d610e35565b73ffffffffffffffffffffffffffffffffffffffff16146114b3576040517f08c379a00000000000000000000000000000000000000000000000000000000081526004016114aa906135a2565b60405180910390fd5b565b60008073ffffffffffffffffffffffffffffffffffffffff166114d7836119ae565b73ffffffffffffffffffffffffffffffffffffffff1614159050919050565b611510828260405180602001604052806000815250611d67565b5050565b61151d816114b5565b61155c576040517f08c379a0000000000000000000000000000000000000000000000000000000008152600401611553906131fc565b60405180910390fd5b50565b600033905090565b816004600083815260200190815260200160002060006101000a81548173ffffffffffffffffffffffffffffffffffffffff021916908373ffffffffffffffffffffffffffffffffffffffff160217905550808273ffffffffffffffffffffffffffffffffffffffff166115da83610ce4565b73ffffffffffffffffffffffffffffffffffffffff167f8c5be1e5ebec7d5bd14f71427d1e84f3dd0314c0f7b2291e5b200ac8c7c3b92560405160405180910390a45050565b8273ffffffffffffffffffffffffffffffffffffffff1661164082610ce4565b73ffffffffffffffffffffffffffffffffffffffff1614611696576040517f08c379a000000000000000000000000000000000000000000000000000000000815260040161168d90613634565b60405180910390fd5b600073ffffffffffffffffffffffffffffffffffffffff168273ffffffffffffffffffffffffffffffffffffffff1603611705576040517f08c379a00000000000000000000000000000000000000000000000000000000081526004016116fc906136c6565b60405180910390fd5b6117128383836001611dc2565b8273ffffffffffffffffffffffffffffffffffffffff1661173282610ce4565b73ffffffffffffffffffffffffffffffffffffffff1614611788576040517f08c379a000000000000000000000000000000000000000000000000000000000815260040161177f90613634565b60405180910390fd5b6004600082815260200190815260200160002060006101000a81549073ffffffffffffffffffffffffffffffffffffffff02191690556001600360008573ffffffffffffffffffffffffffffffffffffffff1673ffffffffffffffffffffffffffffffffffffffff168152602001908152602001600020600082825403925050819055506001600360008473ffffffffffffffffffffffffffffffffffffffff1673ffffffffffffffffffffffffffffffffffffffff16815260200190815260200160002060008282540192505081905550816002600083815260200190815260200160002060006101000a81548173ffffffffffffffffffffffffffffffffffffffff021916908373ffffffffffffffffffffffffffffffffffffffff160217905550808273ffffffffffffffffffffffffffffffffffffffff168473ffffffffffffffffffffffffffffffffffffffff167fddf252ad1be2c89b69c2b068fc378daa952ba7f163c4a11628f55a4df523b3ef60405160405180910390a46119148383836001611dc8565b505050565b60008061192583610ce4565b90508073ffffffffffffffffffffffffffffffffffffffff168473ffffffffffffffffffffffffffffffffffffffff161480611967575061196681856112b6565b5b806119a557508373ffffffffffffffffffffffffffffffffffffffff1661198d84610798565b73ffffffffffffffffffffffffffffffffffffffff16145b91505092915050565b60006002600083815260200190815260200160002060009054906101000a900473ffffffffffffffffffffffffffffffffffffffff169050919050565b6000600660009054906101000a900473ffffffffffffffffffffffffffffffffffffffff16905081600660006101000a81548173ffffffffffffffffffffffffffffffffffffffff021916908373ffffffffffffffffffffffffffffffffffffffff1602179055508173ffffffffffffffffffffffffffffffffffffffff168173ffffffffffffffffffffffffffffffffffffffff167f8be0079c531659141344cd1fd0a4f28419497f9722a3daafe3b4186f6b6457e060405160405180910390a35050565b8173ffffffffffffffffffffffffffffffffffffffff168373ffffffffffffffffffffffffffffffffffffffff1603611b1f576040517f08c379a0000000000000000000000000000000000000000000000000000000008152600401611b1690613732565b60405180910390fd5b80600560008573ffffffffffffffffffffffffffffffffffffffff1673ffffffffffffffffffffffffffffffffffffffff16815260200190815260200160002060008473ffffffffffffffffffffffffffffffffffffffff1673ffffffffffffffffffffffffffffffffffffffff16815260200190815260200160002060006101000a81548160ff0219169083151502179055508173ffffffffffffffffffffffffffffffffffffffff168373ffffffffffffffffffffffffffffffffffffffff167f17307eab39ab6107e8899845ad3d59bd9653f200f220920489ca2b5937696c3183604051611c1091906123c6565b60405180910390a3505050565b611c28848484611620565b611c3484848484611dce565b611c73576040517f08c379a0000000000000000000000000000000000000000000000000000000008152600401611c6a906137c4565b60405180910390fd5b50505050565b60606040518060600160405280603681526020016139cf60369139905090565b606060006001611ca884611f55565b01905060008167ffffffffffffffff811115611cc757611cc6612432565b5b6040519080825280601f01601f191660200182016040528015611cf95781602001600182028036833780820191505090505b509050600082602001820190505b600115611d5c578080600190039150507f3031323334353637383961626364656600000000000000000000000000000000600a86061a8153600a8581611d5057611d4f6137e4565b5b04945060008503611d07575b819350505050919050565b611d7183836120a8565b611d7e6000848484611dce565b611dbd576040517f08c379a0000000000000000000000000000000000000000000000000000000008152600401611db4906137c4565b60405180910390fd5b505050565b50505050565b50505050565b6000611def8473ffffffffffffffffffffffffffffffffffffffff166122c5565b15611f48578373ffffffffffffffffffffffffffffffffffffffff1663150b7a02611e1861155f565b8786866040518563ffffffff1660e01b8152600401611e3a9493929190613868565b6020604051808303816000875af1925050508015611e7657506040513d601f19601f82011682018060405250810190611e7391906138c9565b60015b611ef8573d8060008114611ea6576040519150601f19603f3d011682016040523d82523d6000602084013e611eab565b606091505b506000815103611ef0576040517f08c379a0000000000000000000000000000000000000000000000000000000008152600401611ee7906137c4565b60405180910390fd5b805181602001fd5b63150b7a0260e01b7bffffffffffffffffffffffffffffffffffffffffffffffffffffffff1916817bffffffffffffffffffffffffffffffffffffffffffffffffffffffff191614915050611f4d565b600190505b949350505050565b600080600090507a184f03e93ff9f4daa797ed6e38ed64bf6a1f0100000000000000008310611fb3577a184f03e93ff9f4daa797ed6e38ed64bf6a1f0100000000000000008381611fa957611fa86137e4565b5b0492506040810190505b6d04ee2d6d415b85acef81000000008310611ff0576d04ee2d6d415b85acef81000000008381611fe657611fe56137e4565b5b0492506020810190505b662386f26fc10000831061201f57662386f26fc100008381612015576120146137e4565b5b0492506010810190505b6305f5e1008310612048576305f5e100838161203e5761203d6137e4565b5b0492506008810190505b612710831061206d576127108381612063576120626137e4565b5b0492506004810190505b606483106120905760648381612086576120856137e4565b5b0492506002810190505b600a831061209f576001810190505b80915050919050565b600073ffffffffffffffffffffffffffffffffffffffff168273ffffffffffffffffffffffffffffffffffffffff1603612117576040517f08c379a000000000000000000000000000000000000000000000000000000000815260040161210e90613942565b60405180910390fd5b612120816114b5565b15612160576040517f08c379a0000000000000000000000000000000000000000000000000000000008152600401612157906139ae565b60405180910390fd5b61216e600083836001611dc2565b612177816114b5565b156121b7576040517f08c379a00000000000000000000000000000000000000000000000000000000081526004016121ae906139ae565b60405180910390fd5b6001600360008473ffffffffffffffffffffffffffffffffffffffff1673ffffffffffffffffffffffffffffffffffffffff16815260200190815260200160002060008282540192505081905550816002600083815260200190815260200160002060006101000a81548173ffffffffffffffffffffffffffffffffffffffff021916908373ffffffffffffffffffffffffffffffffffffffff160217905550808273ffffffffffffffffffffffffffffffffffffffff16600073ffffffffffffffffffffffffffffffffffffffff167fddf252ad1be2c89b69c2b068fc378daa952ba7f163c4a11628f55a4df523b3ef60405160405180910390a46122c1600083836001611dc8565b5050565b6000808273ffffffffffffffffffffffffffffffffffffffff163b119050919050565b60405180608001604052806060815260200160608152602001600015158152602001600081525090565b6000604051905090565b600080fd5b600080fd5b60007fffffffff0000000000000000000000000000000000000000000000000000000082169050919050565b61235b81612326565b811461236657600080fd5b50565b60008135905061237881612352565b92915050565b6000602082840312156123945761239361231c565b5b60006123a284828501612369565b91505092915050565b60008115159050919050565b6123c0816123ab565b82525050565b60006020820190506123db60008301846123b7565b92915050565b6000819050919050565b6123f4816123e1565b81146123ff57600080fd5b50565b600081359050612411816123eb565b92915050565b600080fd5b600080fd5b6000601f19601f8301169050919050565b7f4e487b7100000000000000000000000000000000000000000000000000000000600052604160045260246000fd5b61246a82612421565b810181811067ffffffffffffffff8211171561248957612488612432565b5b80604052505050565b600061249c612312565b90506124a88282612461565b919050565b600067ffffffffffffffff8211156124c8576124c7612432565b5b6124d182612421565b9050602081019050919050565b82818337600083830152505050565b60006125006124fb846124ad565b612492565b90508281526020810184848401111561251c5761251b61241c565b5b6125278482856124de565b509392505050565b600082601f83011261254457612543612417565b5b81356125548482602086016124ed565b91505092915050565b6000806000606084860312156125765761257561231c565b5b600061258486828701612402565b935050602084013567ffffffffffffffff8111156125a5576125a4612321565b5b6125b18682870161252f565b925050604084013567ffffffffffffffff8111156125d2576125d1612321565b5b6125de8682870161252f565b9150509250925092565b600081519050919050565b600082825260208201905092915050565b60005b83811015612622578082015181840152602081019050612607565b60008484015250505050565b6000612639826125e8565b61264381856125f3565b9350612653818560208601612604565b61265c81612421565b840191505092915050565b60006020820190508181036000830152612681818461262e565b905092915050565b60006020828403121561269f5761269e61231c565b5b60006126ad84828501612402565b91505092915050565b600073ffffffffffffffffffffffffffffffffffffffff82169050919050565b60006126e1826126b6565b9050919050565b6126f1816126d6565b82525050565b600060208201905061270c60008301846126e8565b92915050565b61271b816126d6565b811461272657600080fd5b50565b60008135905061273881612712565b92915050565b600080604083850312156127555761275461231c565b5b600061276385828601612729565b925050602061277485828601612402565b9150509250929050565b6000806000606084860312156127975761279661231c565b5b60006127a586828701612729565b93505060206127b686828701612729565b92505060406127c786828701612402565b9150509250925092565b600082825260208201905092915050565b60006127ed826125e8565b6127f781856127d1565b9350612807818560208601612604565b61281081612421565b840191505092915050565b612824816123ab565b82525050565b612833816123e1565b82525050565b6000608083016000830151848203600086015261285682826127e2565b9150506020830151848203602086015261287082826127e2565b9150506040830151612885604086018261281b565b506060830151612898606086018261282a565b508091505092915050565b600060208201905081810360008301526128bd8184612839565b905092915050565b6000602082840312156128db576128da61231c565b5b60006128e984828501612729565b91505092915050565b6128fb816123e1565b82525050565b600060208201905061291660008301846128f2565b92915050565b600080604083850312156129335761293261231c565b5b600061294185828601612402565b925050602061295285828601612729565b9150509250929050565b612965816123ab565b811461297057600080fd5b50565b6000813590506129828161295c565b92915050565b6000806040838503121561299f5761299e61231c565b5b60006129ad85828601612729565b92505060206129be85828601612973565b9150509250929050565b600080604083850312156129df576129de61231c565b5b60006129ed85828601612402565b92505060206129fe85828601612402565b9150509250929050565b600067ffffffffffffffff821115612a2357612a22612432565b5b612a2c82612421565b9050602081019050919050565b6000612a4c612a4784612a08565b612492565b905082815260208101848484011115612a6857612a6761241c565b5b612a738482856124de565b509392505050565b600082601f830112612a9057612a8f612417565b5b8135612aa0848260208601612a39565b91505092915050565b60008060008060808587031215612ac357612ac261231c565b5b6000612ad187828801612729565b9450506020612ae287828801612729565b9350506040612af387828801612402565b925050606085013567ffffffffffffffff811115612b1457612b13612321565b5b612b2087828801612a7b565b91505092959194509250565b60008060408385031215612b4357612b4261231c565b5b6000612b5185828601612729565b9250506020612b6285828601612729565b9150509250929050565b7f4e46542077697468207468697320494420616c72656164792065786973747300600082015250565b6000612ba2601f836125f3565b9150612bad82612b6c565b602082019050919050565b60006020820190508181036000830152612bd181612b95565b9050919050565b7f4e487b7100000000000000000000000000000000000000000000000000000000600052602260045260246000fd5b60006002820490506001821680612c1f57607f821691505b602082108103612c3257612c31612bd8565b5b50919050565b60008190508160005260206000209050919050565b60006020601f8301049050919050565b600082821b905092915050565b600060088302612c9a7fffffffffffffffffffffffffffffffffffffffffffffffffffffffffffffffff82612c5d565b612ca48683612c5d565b95508019841693508086168417925050509392505050565b6000819050919050565b6000612ce1612cdc612cd7846123e1565b612cbc565b6123e1565b9050919050565b6000819050919050565b612cfb83612cc6565b612d0f612d0782612ce8565b848454612c6a565b825550505050565b600090565b612d24612d17565b612d2f818484612cf2565b505050565b5b81811015612d5357612d48600082612d1c565b600181019050612d35565b5050565b601f821115612d9857612d6981612c38565b612d7284612c4d565b81016020851015612d81578190505b612d95612d8d85612c4d565b830182612d34565b50505b505050565b600082821c905092915050565b6000612dbb60001984600802612d9d565b1980831691505092915050565b6000612dd48383612daa565b9150826002028217905092915050565b612ded826125e8565b67ffffffffffffffff811115612e0657612e05612432565b5b612e108254612c07565b612e1b828285612d57565b600060209050601f831160018114612e4e5760008415612e3c578287015190505b612e468582612dc8565b865550612eae565b601f198416612e5c86612c38565b60005b82811015612e8457848901518255600182019150602085019450602081019050612e5f565b86831015612ea15784890151612e9d601f891682612daa565b8355505b6001600288020188555050505b505050505050565b7f4552433732313a20617070726f76616c20746f2063757272656e74206f776e6560008201527f7200000000000000000000000000000000000000000000000000000000000000602082015250565b6000612f126021836125f3565b9150612f1d82612eb6565b604082019050919050565b60006020820190508181036000830152612f4181612f05565b9050919050565b7f4552433732313a20617070726f76652063616c6c6572206973206e6f7420746f60008201527f6b656e206f776e6572206f7220617070726f76656420666f7220616c6c000000602082015250565b6000612fa4603d836125f3565b9150612faf82612f48565b604082019050919050565b60006020820190508181036000830152612fd381612f97565b9050919050565b7f4e46542077697468207468697320494420646f6573206e6f7420657869737400600082015250565b6000613010601f836125f3565b915061301b82612fda565b602082019050919050565b6000602082019050818103600083015261303f81613003565b9050919050565b7f4e4654206973206e6f7420666f722073616c6500000000000000000000000000600082015250565b600061307c6013836125f3565b915061308782613046565b602082019050919050565b600060208201905081810360008301526130ab8161306f565b9050919050565b7f496e636f727265637420457468657220616d6f756e7400000000000000000000600082015250565b60006130e86016836125f3565b91506130f3826130b2565b602082019050919050565b60006020820190508181036000830152613117816130db565b9050919050565b7f4552433732313a2063616c6c6572206973206e6f7420746f6b656e206f776e6560008201527f72206f7220617070726f76656400000000000000000000000000000000000000602082015250565b600061317a602d836125f3565b91506131858261311e565b604082019050919050565b600060208201905081810360008301526131a98161316d565b9050919050565b7f4552433732313a20696e76616c696420746f6b656e2049440000000000000000600082015250565b60006131e66018836125f3565b91506131f1826131b0565b602082019050919050565b60006020820190508181036000830152613215816131d9565b9050919050565b7f4552433732313a2061646472657373207a65726f206973206e6f74206120766160008201527f6c6964206f776e65720000000000000000000000000000000000000000000000602082015250565b60006132786029836125f3565b91506132838261321c565b604082019050919050565b600060208201905081810360008301526132a78161326b565b9050919050565b7f4f6e6c7920746865206f776e65722063616e207472616e73666572207468697360008201527f204e465400000000000000000000000000000000000000000000000000000000602082015250565b600061330a6024836125f3565b9150613315826132ae565b604082019050919050565b60006020820190508181036000830152613339816132fd565b9050919050565b7f4f6e6c7920746865206f776e65722063616e2072656d6f76652074686973204e60008201527f46542066726f6d2073616c650000000000000000000000000000000000000000602082015250565b600061339c602c836125f3565b91506133a782613340565b604082019050919050565b600060208201905081810360008301526133cb8161338f565b9050919050565b7f4f6e6c7920746865206f776e65722063616e206c6973742074686973204e465460008201527f20666f722073616c650000000000000000000000000000000000000000000000602082015250565b600061342e6029836125f3565b9150613439826133d2565b604082019050919050565b6000602082019050818103600083015261345d81613421565b9050919050565b600081905092915050565b600061347a826125e8565b6134848185613464565b9350613494818560208601612604565b80840191505092915050565b60006134ac828561346f565b91506134b8828461346f565b91508190509392505050565b7f4f776e61626c653a206e6577206f776e657220697320746865207a65726f206160008201527f6464726573730000000000000000000000000000000000000000000000000000602082015250565b60006135206026836125f3565b915061352b826134c4565b604082019050919050565b6000602082019050818103600083015261354f81613513565b9050919050565b7f4f776e61626c653a2063616c6c6572206973206e6f7420746865206f776e6572600082015250565b600061358c6020836125f3565b915061359782613556565b602082019050919050565b600060208201905081810360008301526135bb8161357f565b9050919050565b7f4552433732313a207472616e736665722066726f6d20696e636f72726563742060008201527f6f776e6572000000000000000000000000000000000000000000000000000000602082015250565b600061361e6025836125f3565b9150613629826135c2565b604082019050919050565b6000602082019050818103600083015261364d81613611565b9050919050565b7f4552433732313a207472616e7366657220746f20746865207a65726f2061646460008201527f7265737300000000000000000000000000000000000000000000000000000000602082015250565b60006136b06024836125f3565b91506136bb82613654565b604082019050919050565b600060208201905081810360008301526136df816136a3565b9050919050565b7f4552433732313a20617070726f766520746f2063616c6c657200000000000000600082015250565b600061371c6019836125f3565b9150613727826136e6565b602082019050919050565b6000602082019050818103600083015261374b8161370f565b9050919050565b7f4552433732313a207472616e7366657220746f206e6f6e20455243373231526560008201527f63656976657220696d706c656d656e7465720000000000000000000000000000602082015250565b60006137ae6032836125f3565b91506137b982613752565b604082019050919050565b600060208201905081810360008301526137dd816137a1565b9050919050565b7f4e487b7100000000000000000000000000000000000000000000000000000000600052601260045260246000fd5b600081519050919050565b600082825260208201905092915050565b600061383a82613813565b613844818561381e565b9350613854818560208601612604565b61385d81612421565b840191505092915050565b600060808201905061387d60008301876126e8565b61388a60208301866126e8565b61389760408301856128f2565b81810360608301526138a9818461382f565b905095945050505050565b6000815190506138c381612352565b92915050565b6000602082840312156138df576138de61231c565b5b60006138ed848285016138b4565b91505092915050565b7f4552433732313a206d696e7420746f20746865207a65726f2061646472657373600082015250565b600061392c6020836125f3565b9150613937826138f6565b602082019050919050565b6000602082019050818103600083015261395b8161391f565b9050919050565b7f4552433732313a20746f6b656e20616c7265616479206d696e74656400000000600082015250565b6000613998601c836125f3565b91506139a382613962565b602082019050919050565b600060208201905081810360008301526139c78161398b565b905091905056fe697066733a2f2f516d50693641616265764b7a34454252424468324d5865693251726e51676f504b355231735a795a6b59486f65612fa26469706673582212205652a71439e637dbbd43e58be73f5d1e6f8aec17be65d84cd45539a488cb3ab064736f6c63430008130033",
  "immutableReferences": {},
  "source": "// SPDX-License-Identifier: MIT\n\npragma solidity ^0.8.0;\n\nimport \"@openzeppelin/contracts/token/ERC721/ERC721.sol\";\nimport \"@openzeppelin/contracts/access/Ownable.sol\";\n\ncontract NFTMarketplace is ERC721, Ownable {\n    struct NFT {\n        string name;\n        string description;\n        bool forSale;\n        uint256 price;\n    }\n\n    mapping(uint256 => NFT) private nfts;\n\n    constructor() ERC721(\"NFT Marketplace\", \"HW\") {}\n\n    function _baseURI() internal pure override returns (string memory) {\n        return \"ipfs://QmPi6AabevKz4EBRBDh2MXei2QrnQgoPK5R1sZyZkYHoea/\";\n    }\n\n    function createNFT(uint256 tokenId, string memory name, string memory description) public onlyOwner {\n        require(!_exists(tokenId), \"NFT with this ID already exists\");\n\n        _safeMint(msg.sender, tokenId);\n        nfts[tokenId] = NFT(name, description, false, 0);\n    }\n\n    function transferNFT(uint256 tokenId, address to) public {\n        require(_exists(tokenId), \"NFT with this ID does not exist\");\n        require(ownerOf(tokenId) == msg.sender, \"Only the owner can transfer this NFT\");\n\n        safeTransferFrom(msg.sender, to, tokenId);\n    }\n\n    function listNFTForSale(uint256 tokenId, uint256 price) public {\n        require(_exists(tokenId), \"NFT with this ID does not exist\");\n        require(ownerOf(tokenId) == msg.sender, \"Only the owner can list this NFT for sale\");\n\n        nfts[tokenId].forSale = true;\n        nfts[tokenId].price = price;\n    }\n\n    function removeNFTFromSale(uint256 tokenId) public {\n        require(_exists(tokenId), \"NFT with this ID does not exist\");\n        require(ownerOf(tokenId) == msg.sender, \"Only the owner can remove this NFT from sale\");\n\n        nfts[tokenId].forSale = false;\n        nfts[tokenId].price = 0;\n    }\n\n    function purchaseNFT(uint256 tokenId) public payable {\n        require(_exists(tokenId), \"NFT with this ID does not exist\");\n        require(nfts[tokenId].forSale, \"NFT is not for sale\");\n        require(msg.value == nfts[tokenId].price, \"Incorrect Ether amount\");\n\n        address payable owner = payable(ownerOf(tokenId));\n        _transfer(owner, msg.sender, tokenId);\n        owner.transfer(msg.value);\n\n        nfts[tokenId].forSale = false;\n        nfts[tokenId].price = 0;\n    }\n\n    function getNFT(uint256 tokenId) public view returns (NFT memory nft) {\n        require(_exists(tokenId), \"NFT with this ID does not exist\");\n\n        return nfts[tokenId];\n    }\n}\n",
  "sourcePath": "/Users/hw/nft-truffle/contracts/NFTMarketplace.sol",
  "compiler": {
    "name": "solc",
    "version": "0.8.19+commit.7dd6d404.Emscripten.clang"
  },
  "schemaVersion": "3.4.13",
  "updatedAt": "2023-04-15T14:58:21.826Z",
  "networkType": "ethereum",
  "devdoc": {
    "events": {
      "Approval(address,address,uint256)": {
        "details": "Emitted when `owner` enables `approved` to manage the `tokenId` token."
      },
      "ApprovalForAll(address,address,bool)": {
        "details": "Emitted when `owner` enables or disables (`approved`) `operator` to manage all of its assets."
      },
      "Transfer(address,address,uint256)": {
        "details": "Emitted when `tokenId` token is transferred from `from` to `to`."
      }
    },
    "kind": "dev",
    "methods": {
      "approve(address,uint256)": {
        "details": "See {IERC721-approve}."
      },
      "balanceOf(address)": {
        "details": "See {IERC721-balanceOf}."
      },
      "getApproved(uint256)": {
        "details": "See {IERC721-getApproved}."
      },
      "isApprovedForAll(address,address)": {
        "details": "See {IERC721-isApprovedForAll}."
      },
      "name()": {
        "details": "See {IERC721Metadata-name}."
      },
      "owner()": {
        "details": "Returns the address of the current owner."
      },
      "ownerOf(uint256)": {
        "details": "See {IERC721-ownerOf}."
      },
      "renounceOwnership()": {
        "details": "Leaves the contract without owner. It will not be possible to call `onlyOwner` functions anymore. Can only be called by the current owner. NOTE: Renouncing ownership will leave the contract without an owner, thereby removing any functionality that is only available to the owner."
      },
      "safeTransferFrom(address,address,uint256)": {
        "details": "See {IERC721-safeTransferFrom}."
      },
      "safeTransferFrom(address,address,uint256,bytes)": {
        "details": "See {IERC721-safeTransferFrom}."
      },
      "setApprovalForAll(address,bool)": {
        "details": "See {IERC721-setApprovalForAll}."
      },
      "supportsInterface(bytes4)": {
        "details": "See {IERC165-supportsInterface}."
      },
      "symbol()": {
        "details": "See {IERC721Metadata-symbol}."
      },
      "tokenURI(uint256)": {
        "details": "See {IERC721Metadata-tokenURI}."
      },
      "transferFrom(address,address,uint256)": {
        "details": "See {IERC721-transferFrom}."
      },
      "transferOwnership(address)": {
        "details": "Transfers ownership of the contract to a new account (`newOwner`). Can only be called by the current owner."
      }
    },
    "version": 1
  },
  "userdoc": {
    "kind": "user",
    "methods": {},
    "version": 1
  }
}